A152205706G17S52205  10314                                                                                                                                                                      
A352205706G17319HP65HA                                                                                                                                                                          
A5C522056767McKenzie:Ross DEAN                      M220501522050126767DX9193359040286277910719             8403   8702   8401   8402   8700   7992                                             
A7522050000003270217                                                                                                                                                                            
A95220500000050000001                                                                                                                                                                           
