E152205016b17S52205  10314                                                                                                                                                                      
E352205016b17289HP65HA                                                                                                                                                                          
E5C522056853Revadala:Pranav                         M070200522050126853BD9192995030675688302568             4755   4771                                                                         
E7522050000003090217                                                                                                                                                                            
E95220500000050000001                                                                                                                                                                           
