O13a17_993a17B52205  00112              
O33a17_993a17_001                       
O5Bi1   Bi1   INT B  U       E000000000000Biology                             N00000        M                10000   
O5Ch1   Ch1   INT B  U       E000000000000Chemistry                           N00000        M                10000   
O5Dr1   Dr1   INT B  U       E000000000000Drama & Theatre Studies             N00000        M                10000   
O5Ec1   Ec1   INT B  U       E000000000000Economics                           N00000        M                10000   
O5El1   El1   INT B  U       E000000000000Electronics                         N00000        M                10000   
O5En1   En1   INT B  U       E000000000000English Literature                  N00000        M                10000   
O5Fr1   Fr1   INT B  U       E000000000000French                              N00000        M                10000   
O5Fu1   Fu1   INT B  U       E000000000000Further Maths                       N00000        M                10000   
O5Ge1   Ge1   INT B  U       E000000000000Geography                           N00000        M                10000   
O5Ge2   Ge2   INT B  U       E000000000000German                              N00000        M                10000   
O5Go1   Go1   INT B  U       E000000000000Govt & Politics                     N00000        M                10000   
O5Hi1   Hi1   INT B  U       E000000000000History                             N00000        M                10000   
O5Ma1   Ma1   INT B  U       E000000000000Maths                               N00000        M                10000   
O5Ph1   Ph1   INT B  U       E000000000000Physics                             N00000        M                10000   
O5RS1   RS1   INT B  U       E000000000000RS                                  N00000        M                10000   
O5Sp1   Sp1   INT B  U       E000000000000Spanish                             N00000        M                10000   
O73a17_0000016210117                    
O93a17_00000160000001                   
